{
  "_format": "hh-sol-artifact-1",
  "contractName": "VestingContract",
  "sourceName": "contracts/vesting/vestingContract.sol",
  "abi": [
    {
      "inputs": [
        {
          "internalType": "contract IERC20",
          "name": "_token",
          "type": "address"
        }
      ],
      "stateMutability": "nonpayable",
      "type": "constructor"
    },
    {
      "inputs": [
        {
          "internalType": "address",
          "name": "target",
          "type": "address"
        }
      ],
      "name": "AddressEmptyCode",
      "type": "error"
    },
    {
      "inputs": [
        {
          "internalType": "address",
          "name": "account",
          "type": "address"
        }
      ],
      "name": "AddressInsufficientBalance",
      "type": "error"
    },
    {
      "inputs": [],
      "name": "FailedInnerCall",
      "type": "error"
    },
    {
      "inputs": [
        {
          "internalType": "address",
          "name": "owner",
          "type": "address"
        }
      ],
      "name": "OwnableInvalidOwner",
      "type": "error"
    },
    {
      "inputs": [
        {
          "internalType": "address",
          "name": "account",
          "type": "address"
        }
      ],
      "name": "OwnableUnauthorizedAccount",
      "type": "error"
    },
    {
      "inputs": [],
      "name": "ReentrancyGuardReentrantCall",
      "type": "error"
    },
    {
      "inputs": [
        {
          "internalType": "address",
          "name": "token",
          "type": "address"
        }
      ],
      "name": "SafeERC20FailedOperation",
      "type": "error"
    },
    {
      "anonymous": false,
      "inputs": [
        {
          "indexed": true,
          "internalType": "address",
          "name": "previousOwner",
          "type": "address"
        },
        {
          "indexed": true,
          "internalType": "address",
          "name": "newOwner",
          "type": "address"
        }
      ],
      "name": "OwnershipTransferred",
      "type": "event"
    },
    {
      "anonymous": false,
      "inputs": [
        {
          "indexed": true,
          "internalType": "address",
          "name": "beneficiary",
          "type": "address"
        },
        {
          "indexed": true,
          "internalType": "uint256",
          "name": "vestingId",
          "type": "uint256"
        },
        {
          "indexed": false,
          "internalType": "uint256",
          "name": "amount",
          "type": "uint256"
        }
      ],
      "name": "TokenClaimed",
      "type": "event"
    },
    {
      "anonymous": false,
      "inputs": [
        {
          "indexed": true,
          "internalType": "address",
          "name": "beneficiary",
          "type": "address"
        },
        {
          "indexed": true,
          "internalType": "uint256",
          "name": "vestingId",
          "type": "uint256"
        },
        {
          "indexed": false,
          "internalType": "uint256",
          "name": "amount",
          "type": "uint256"
        },
        {
          "indexed": false,
          "internalType": "uint256",
          "name": "startTime",
          "type": "uint256"
        },
        {
          "indexed": false,
          "internalType": "uint256",
          "name": "vestingPeriod",
          "type": "uint256"
        }
      ],
      "name": "VestingCreated",
      "type": "event"
    },
    {
      "inputs": [
        {
          "internalType": "uint256",
          "name": "vestId",
          "type": "uint256"
        }
      ],
      "name": "claim",
      "outputs": [],
      "stateMutability": "nonpayable",
      "type": "function"
    },
    {
      "inputs": [
        {
          "internalType": "address",
          "name": "beneficiary",
          "type": "address"
        },
        {
          "internalType": "uint256",
          "name": "vestId",
          "type": "uint256"
        }
      ],
      "name": "claimableAmount",
      "outputs": [
        {
          "internalType": "uint256",
          "name": "",
          "type": "uint256"
        }
      ],
      "stateMutability": "view",
      "type": "function"
    },
    {
      "inputs": [],
      "name": "owner",
      "outputs": [
        {
          "internalType": "address",
          "name": "",
          "type": "address"
        }
      ],
      "stateMutability": "view",
      "type": "function"
    },
    {
      "inputs": [],
      "name": "renounceOwnership",
      "outputs": [],
      "stateMutability": "nonpayable",
      "type": "function"
    },
    {
      "inputs": [],
      "name": "token",
      "outputs": [
        {
          "internalType": "contract IERC20",
          "name": "",
          "type": "address"
        }
      ],
      "stateMutability": "view",
      "type": "function"
    },
    {
      "inputs": [
        {
          "internalType": "address",
          "name": "newOwner",
          "type": "address"
        }
      ],
      "name": "transferOwnership",
      "outputs": [],
      "stateMutability": "nonpayable",
      "type": "function"
    },
    {
      "inputs": [
        {
          "internalType": "address",
          "name": "beneficiary",
          "type": "address"
        },
        {
          "internalType": "uint256",
          "name": "amount",
          "type": "uint256"
        },
        {
          "internalType": "uint256",
          "name": "cliffPeriod",
          "type": "uint256"
        },
        {
          "internalType": "uint256",
          "name": "vestingPeriod",
          "type": "uint256"
        },
        {
          "internalType": "uint256",
          "name": "timeUnit",
          "type": "uint256"
        }
      ],
      "name": "vest",
      "outputs": [],
      "stateMutability": "nonpayable",
      "type": "function"
    },
    {
      "inputs": [
        {
          "internalType": "address",
          "name": "",
          "type": "address"
        }
      ],
      "name": "vestingCount",
      "outputs": [
        {
          "internalType": "uint256",
          "name": "",
          "type": "uint256"
        }
      ],
      "stateMutability": "view",
      "type": "function"
    },
    {
      "inputs": [
        {
          "internalType": "address",
          "name": "",
          "type": "address"
        },
        {
          "internalType": "uint256",
          "name": "",
          "type": "uint256"
        }
      ],
      "name": "vestingInfo",
      "outputs": [
        {
          "internalType": "uint256",
          "name": "startTime",
          "type": "uint256"
        },
        {
          "internalType": "uint256",
          "name": "totalAmount",
          "type": "uint256"
        },
        {
          "internalType": "uint256",
          "name": "claimedAmount",
          "type": "uint256"
        },
        {
          "internalType": "uint256",
          "name": "cliffPeriod",
          "type": "uint256"
        },
        {
          "internalType": "uint256",
          "name": "vestingPeriod",
          "type": "uint256"
        },
        {
          "internalType": "uint256",
          "name": "timeUnit",
          "type": "uint256"
        },
        {
          "internalType": "bool",
          "name": "initialized",
          "type": "bool"
        }
      ],
      "stateMutability": "view",
      "type": "function"
    }
  ],
  "bytecode": "0x60a060405234801561001057600080fd5b50604051611ce1380380611ce18339818101604052810190610032919061029e565b33600073ffffffffffffffffffffffffffffffffffffffff168173ffffffffffffffffffffffffffffffffffffffff16036100a55760006040517f1e4fbdf700000000000000000000000000000000000000000000000000000000815260040161009c91906102da565b60405180910390fd5b6100b48161016560201b60201c565b50600180819055508073ffffffffffffffffffffffffffffffffffffffff1660808173ffffffffffffffffffffffffffffffffffffffff1681525050600073ffffffffffffffffffffffffffffffffffffffff168173ffffffffffffffffffffffffffffffffffffffff160361015f576040517f08c379a000000000000000000000000000000000000000000000000000000000815260040161015690610352565b60405180910390fd5b50610372565b60008060009054906101000a900473ffffffffffffffffffffffffffffffffffffffff169050816000806101000a81548173ffffffffffffffffffffffffffffffffffffffff021916908373ffffffffffffffffffffffffffffffffffffffff1602179055508173ffffffffffffffffffffffffffffffffffffffff168173ffffffffffffffffffffffffffffffffffffffff167f8be0079c531659141344cd1fd0a4f28419497f9722a3daafe3b4186f6b6457e060405160405180910390a35050565b600080fd5b600073ffffffffffffffffffffffffffffffffffffffff82169050919050565b60006102598261022e565b9050919050565b600061026b8261024e565b9050919050565b61027b81610260565b811461028657600080fd5b50565b60008151905061029881610272565b92915050565b6000602082840312156102b4576102b3610229565b5b60006102c284828501610289565b91505092915050565b6102d48161024e565b82525050565b60006020820190506102ef60008301846102cb565b92915050565b600082825260208201905092915050565b7f496e76616c696420746f6b656e00000000000000000000000000000000000000600082015250565b600061033c600d836102f5565b915061034782610306565b602082019050919050565b6000602082019050818103600083015261036b8161032f565b9050919050565b60805161194661039b600039600081816102e8015281816107b00152610a1301526119466000f3fe608060405234801561001057600080fd5b50600436106100935760003560e01c806379b8d9381161006657806379b8d938146101245780638da5cb5b14610154578063b395cb3c14610172578063f2fde38b1461018e578063fc0c546a146101aa57610093565b8063379607f5146100985780633d4ef007146100b45780636b97f59e146100e4578063715018a61461011a575b600080fd5b6100b260048036038101906100ad9190610fdb565b6101c8565b005b6100ce60048036038101906100c99190611066565b610388565b6040516100db91906110a2565b60405180910390f35b6100fe60048036038101906100f991906110bd565b6103a0565b6040516101119796959493929190611118565b60405180910390f35b6101226103fc565b005b61013e600480360381019061013991906110bd565b610410565b60405161014b91906110a2565b60405180910390f35b61015c6105b8565b6040516101699190611196565b60405180910390f35b61018c600480360381019061018791906111b1565b6105e1565b005b6101a860048036038101906101a39190611066565b61098b565b005b6101b2610a11565b6040516101bf919061128b565b60405180910390f35b6101d0610a35565b6000600260003373ffffffffffffffffffffffffffffffffffffffff1673ffffffffffffffffffffffffffffffffffffffff168152602001908152602001600020600083815260200190815260200160002090508060060160009054906101000a900460ff16610275576040517f08c379a000000000000000000000000000000000000000000000000000000000815260040161026c90611303565b60405180910390fd5b60006102813384610410565b9050600081116102c6576040517f08c379a00000000000000000000000000000000000000000000000000000000081526004016102bd9061136f565b60405180910390fd5b808260020160008282546102da91906113be565b9250508190555061032c33827f000000000000000000000000000000000000000000000000000000000000000073ffffffffffffffffffffffffffffffffffffffff16610a7b9092919063ffffffff16565b823373ffffffffffffffffffffffffffffffffffffffff167fcb1e26772e882480176a3e649a5f7937dc0ec3f50126283faf56f927b070be808360405161037391906110a2565b60405180910390a35050610385610afa565b50565b60036020528060005260406000206000915090505481565b6002602052816000526040600020602052806000526040600020600091509150508060000154908060010154908060020154908060030154908060040154908060050154908060060160009054906101000a900460ff16905087565b610404610b03565b61040e6000610b8a565b565b60008073ffffffffffffffffffffffffffffffffffffffff168373ffffffffffffffffffffffffffffffffffffffff1603610480576040517f08c379a00000000000000000000000000000000000000000000000000000000081526004016104779061143e565b60405180910390fd5b6000600260008573ffffffffffffffffffffffffffffffffffffffff1673ffffffffffffffffffffffffffffffffffffffff16815260200190815260200160002060008481526020019081526020016000206040518060e00160405290816000820154815260200160018201548152602001600282015481526020016003820154815260200160048201548152602001600582015481526020016006820160009054906101000a900460ff16151515158152505090508060c0015161057a576040517f08c379a0000000000000000000000000000000000000000000000000000000008152600401610571906114aa565b60405180910390fd5b600061058582610c4e565b90508160400151811161059d576000925050506105b2565b8160400151816105ad91906114ca565b925050505b92915050565b60008060009054906101000a900473ffffffffffffffffffffffffffffffffffffffff16905090565b6105e9610b03565b600073ffffffffffffffffffffffffffffffffffffffff168573ffffffffffffffffffffffffffffffffffffffff1603610658576040517f08c379a000000000000000000000000000000000000000000000000000000000815260040161064f9061143e565b60405180910390fd5b6000840361069b576040517f08c379a00000000000000000000000000000000000000000000000000000000081526004016106929061154a565b60405180910390fd5b600082036106de576040517f08c379a00000000000000000000000000000000000000000000000000000000081526004016106d5906115b6565b60405180910390fd5b81831115610721576040517f08c379a000000000000000000000000000000000000000000000000000000000815260040161071890611622565b60405180910390fd5b60008111610764576040517f08c379a000000000000000000000000000000000000000000000000000000000815260040161075b9061168e565b60405180910390fd5b6000600360008773ffffffffffffffffffffffffffffffffffffffff1673ffffffffffffffffffffffffffffffffffffffff1681526020019081526020016000205490506107f53330877f000000000000000000000000000000000000000000000000000000000000000073ffffffffffffffffffffffffffffffffffffffff16610cc8909392919063ffffffff16565b6040518060e001604052804281526020018681526020016000815260200185815260200184815260200183815260200160011515815250600260008873ffffffffffffffffffffffffffffffffffffffff1673ffffffffffffffffffffffffffffffffffffffff1681526020019081526020016000206000838152602001908152602001600020600082015181600001556020820151816001015560408201518160020155606082015181600301556080820151816004015560a0820151816005015560c08201518160060160006101000a81548160ff021916908315150217905550905050600360008773ffffffffffffffffffffffffffffffffffffffff1673ffffffffffffffffffffffffffffffffffffffff168152602001908152602001600020600081548092919061092b906116ae565b9190505550808673ffffffffffffffffffffffffffffffffffffffff167f0ef11fd80fff9cb633beabeab03e30cd8c01b8f7f20493f9644fc85b9cd5bc7887428760405161097b939291906116f6565b60405180910390a3505050505050565b610993610b03565b600073ffffffffffffffffffffffffffffffffffffffff168173ffffffffffffffffffffffffffffffffffffffff1603610a055760006040517f1e4fbdf70000000000000000000000000000000000000000000000000000000081526004016109fc9190611196565b60405180910390fd5b610a0e81610b8a565b50565b7f000000000000000000000000000000000000000000000000000000000000000081565b600260015403610a71576040517f3ee5aeb500000000000000000000000000000000000000000000000000000000815260040160405180910390fd5b6002600181905550565b610af5838473ffffffffffffffffffffffffffffffffffffffff1663a9059cbb8585604051602401610aae92919061172d565b604051602081830303815290604052915060e01b6020820180517bffffffffffffffffffffffffffffffffffffffffffffffffffffffff8381831617835250505050610d4a565b505050565b60018081905550565b610b0b610de1565b73ffffffffffffffffffffffffffffffffffffffff16610b296105b8565b73ffffffffffffffffffffffffffffffffffffffff1614610b8857610b4c610de1565b6040517f118cdaa7000000000000000000000000000000000000000000000000000000008152600401610b7f9190611196565b60405180910390fd5b565b60008060009054906101000a900473ffffffffffffffffffffffffffffffffffffffff169050816000806101000a81548173ffffffffffffffffffffffffffffffffffffffff021916908373ffffffffffffffffffffffffffffffffffffffff1602179055508173ffffffffffffffffffffffffffffffffffffffff168173ffffffffffffffffffffffffffffffffffffffff167f8be0079c531659141344cd1fd0a4f28419497f9722a3daafe3b4186f6b6457e060405160405180910390a35050565b6000808260a00151836000015142610c6691906114ca565b610c709190611785565b90508260600151811015610c88576000915050610cc3565b82608001518110610ca0578260200151915050610cc3565b8260800151818460200151610cb591906117b6565b610cbf9190611785565b9150505b919050565b610d44848573ffffffffffffffffffffffffffffffffffffffff166323b872dd868686604051602401610cfd939291906117f8565b604051602081830303815290604052915060e01b6020820180517bffffffffffffffffffffffffffffffffffffffffffffffffffffffff8381831617835250505050610d4a565b50505050565b6000610d75828473ffffffffffffffffffffffffffffffffffffffff16610de990919063ffffffff16565b90506000815114158015610d9a575080806020019051810190610d98919061185b565b155b15610ddc57826040517f5274afe7000000000000000000000000000000000000000000000000000000008152600401610dd39190611196565b60405180910390fd5b505050565b600033905090565b6060610df783836000610dff565b905092915050565b606081471015610e4657306040517fcd786059000000000000000000000000000000000000000000000000000000008152600401610e3d9190611196565b60405180910390fd5b6000808573ffffffffffffffffffffffffffffffffffffffff168486604051610e6f91906118f9565b60006040518083038185875af1925050503d8060008114610eac576040519150601f19603f3d011682016040523d82523d6000602084013e610eb1565b606091505b5091509150610ec1868383610ecc565b925050509392505050565b606082610ee157610edc82610f5b565b610f53565b60008251148015610f09575060008473ffffffffffffffffffffffffffffffffffffffff163b145b15610f4b57836040517f9996b315000000000000000000000000000000000000000000000000000000008152600401610f429190611196565b60405180910390fd5b819050610f54565b5b9392505050565b600081511115610f6e5780518082602001fd5b6040517f1425ea4200000000000000000000000000000000000000000000000000000000815260040160405180910390fd5b600080fd5b6000819050919050565b610fb881610fa5565b8114610fc357600080fd5b50565b600081359050610fd581610faf565b92915050565b600060208284031215610ff157610ff0610fa0565b5b6000610fff84828501610fc6565b91505092915050565b600073ffffffffffffffffffffffffffffffffffffffff82169050919050565b600061103382611008565b9050919050565b61104381611028565b811461104e57600080fd5b50565b6000813590506110608161103a565b92915050565b60006020828403121561107c5761107b610fa0565b5b600061108a84828501611051565b91505092915050565b61109c81610fa5565b82525050565b60006020820190506110b76000830184611093565b92915050565b600080604083850312156110d4576110d3610fa0565b5b60006110e285828601611051565b92505060206110f385828601610fc6565b9150509250929050565b60008115159050919050565b611112816110fd565b82525050565b600060e08201905061112d600083018a611093565b61113a6020830189611093565b6111476040830188611093565b6111546060830187611093565b6111616080830186611093565b61116e60a0830185611093565b61117b60c0830184611109565b98975050505050505050565b61119081611028565b82525050565b60006020820190506111ab6000830184611187565b92915050565b600080600080600060a086880312156111cd576111cc610fa0565b5b60006111db88828901611051565b95505060206111ec88828901610fc6565b94505060406111fd88828901610fc6565b935050606061120e88828901610fc6565b925050608061121f88828901610fc6565b9150509295509295909350565b6000819050919050565b600061125161124c61124784611008565b61122c565b611008565b9050919050565b600061126382611236565b9050919050565b600061127582611258565b9050919050565b6112858161126a565b82525050565b60006020820190506112a0600083018461127c565b92915050565b600082825260208201905092915050565b7f496e76616c69642076657374696e670000000000000000000000000000000000600082015250565b60006112ed600f836112a6565b91506112f8826112b7565b602082019050919050565b6000602082019050818103600083015261131c816112e0565b9050919050565b7f4e6f7468696e6720746f20636c61696d00000000000000000000000000000000600082015250565b60006113596010836112a6565b915061136482611323565b602082019050919050565b600060208201905081810360008301526113888161134c565b9050919050565b7f4e487b7100000000000000000000000000000000000000000000000000000000600052601160045260246000fd5b60006113c982610fa5565b91506113d483610fa5565b92508282019050808211156113ec576113eb61138f565b5b92915050565b7f496e76616c696420616464726573730000000000000000000000000000000000600082015250565b6000611428600f836112a6565b9150611433826113f2565b602082019050919050565b600060208201905081810360008301526114578161141b565b9050919050565b7f496e76616c69642056657374696e670000000000000000000000000000000000600082015250565b6000611494600f836112a6565b915061149f8261145e565b602082019050919050565b600060208201905081810360008301526114c381611487565b9050919050565b60006114d582610fa5565b91506114e083610fa5565b92508282039050818111156114f8576114f761138f565b5b92915050565b7f456e74657220616d6f756e740000000000000000000000000000000000000000600082015250565b6000611534600c836112a6565b915061153f826114fe565b602082019050919050565b6000602082019050818103600083015261156381611527565b9050919050565b7f456e7465722076657374696e67506572696f6400000000000000000000000000600082015250565b60006115a06013836112a6565b91506115ab8261156a565b602082019050919050565b600060208201905081810360008301526115cf81611593565b9050919050565b7f496e76616c696420636c69666600000000000000000000000000000000000000600082015250565b600061160c600d836112a6565b9150611617826115d6565b602082019050919050565b6000602082019050818103600083015261163b816115ff565b9050919050565b7f496e76616c69642074696d65556e697400000000000000000000000000000000600082015250565b60006116786010836112a6565b915061168382611642565b602082019050919050565b600060208201905081810360008301526116a78161166b565b9050919050565b60006116b982610fa5565b91507fffffffffffffffffffffffffffffffffffffffffffffffffffffffffffffffff82036116eb576116ea61138f565b5b600182019050919050565b600060608201905061170b6000830186611093565b6117186020830185611093565b6117256040830184611093565b949350505050565b60006040820190506117426000830185611187565b61174f6020830184611093565b9392505050565b7f4e487b7100000000000000000000000000000000000000000000000000000000600052601260045260246000fd5b600061179082610fa5565b915061179b83610fa5565b9250826117ab576117aa611756565b5b828204905092915050565b60006117c182610fa5565b91506117cc83610fa5565b92508282026117da81610fa5565b915082820484148315176117f1576117f061138f565b5b5092915050565b600060608201905061180d6000830186611187565b61181a6020830185611187565b6118276040830184611093565b949350505050565b611838816110fd565b811461184357600080fd5b50565b6000815190506118558161182f565b92915050565b60006020828403121561187157611870610fa0565b5b600061187f84828501611846565b91505092915050565b600081519050919050565b600081905092915050565b60005b838110156118bc5780820151818401526020810190506118a1565b60008484015250505050565b60006118d382611888565b6118dd8185611893565b93506118ed81856020860161189e565b80840191505092915050565b600061190582846118c8565b91508190509291505056fea2646970667358221220913319c571231696b9ca475b80e9a6235c434e61a59106d159754ad16cd832a064736f6c634300081e0033",
  "linkReferences": {},
  "deployedLinkReferences": {}
}